:060000000A128A11122809
:10000800FE00030EF0000408F1000A08F200831253
:1000180003137F08F3000A128A15AC2B0A128A11FF
:100028001528F601F701F801F90183135A30840005
:1000380063300A128A159A230A128A11A0308400A2
:10004800BC300A128A159A2383010A128A155A2D7E
:10005800831203138E018F0186140330D900D90B44
:100068003328831203138610061D38281014061926
:100078003B280F0883160313C701C707831203130E
:100088000E0883160313C601C60783120313101044
:1000980083160313470883120313A901A9078316BC
:1000A8000313460883120313A801A8070A128A1526
:1000B800C3230A128A11831203132808AE002908E1
:1000C800AF002A08B0004430AB008B30AC003C30A5
:1000D800AD000A128A118E250A128A11831203139F
:1000E8002B08CB002C08CC002D08CD000A128A154D
:1000F80072270A128A11831203134C0883160313FA
:10010800C901C907831203134B0883160313C801D7
:10011800C807831203135D08D9005907A03E84005D
:1001280083160313480883138000840A4908800053
:10013800013083120313DD070318DE0A0030DE07DF
:1001480083160313CC01CD014D08803AFF0080309F
:100158007F02031DB1280A304C020318F5288316C4
:1001680003134C0883120313D9005907A03E8400D7
:1001780083130008A800840A0008A9000A128A1537
:10018800C3230A128A11831203132808BE00290800
:10019800BF002A08C0005A08C1005B08C2005C08FA
:1001A800C3000A128A11AA230A128A11831203139E
:1001B8003E08DA003F08DB004008DC000130831607
:1001C8000313CC070318CD0A0030CD074D08803A39
:1001D800FF0080307F02031DF3280A304C02031C05
:1001E800B328003083120313A8002030A90041303F
:1001F800AA005A08AB005B08AC005C08AD000A1204
:100208008A1161260A128A11831203132808DA0058
:100218002908DB002A08DC000030A0000030A1001B
:100228004030A2005A08A3005B08A4005C08A5009F
:100238000A128A154A260A128A11031C2B29003031
:1002480083120313DA000030DB000030DC00831275
:1002580003135A08A0005B08A1005C08A200003044
:10026800A300A030A4004130A5000A128A154A262E
:100278000A128A11031C4829003083120313DA007A
:10028800A030DB004130DC00831203135A08AE00B3
:100298005B08AF005C08B0000030AB00A030AC00D9
:1002A8004030AD000A128A118E250A128A11831273
:1002B80003132B08BB002C08BC002D08BD000A1234
:1002C8008A15A2230A128A11831203133B08C1005C
:1002D8003C08C2003D08C3000030BE00C830BF0063
:1002E8004230C0000A128A11AA230A128A11831204
:1002F80003133E08CB003F08CC004008CD000A128B
:100308008A1572270A128A11831203134C0883165E
:100318000313CB01CB07831203134B088316031374
:10032800CA01CA070A3083120313A0000030A100D3
:100338005E08A301A3075D08A201A2070A128A1595
:10034800A0250A128A11831203132108DE01DE0791
:100358002008DD01DD07DA300A128A1561240A1245
:100368008A114330F4008030F5000A128A151524EA
:100378000A128A11DA300A128A1561240A128A11BD
:10038800803083120313D9005908AC008316031375
:100398004B0883120313AE01AE07831603134A08F2
:1003A80083120313AD01AD07BC300A128A11B324BE
:1003B8000A128A11BC30F4000030F5000A128A15BE
:1003C80015240A128A11831603134B084A04031DC5
:1003D800F629B601B7010130F6000030F7008B129C
:1003E8000B1108004B08803AFF0080307F02031D84
:1003F800FF2932304A020318192A013083160313E1
:10040800B6000030B7008B160B11F601F7018030EB
:100418000A128A1561240A128A113A30F4008030CF
:10042800F5000A128A151524080083160313B6016D
:10043800B7018B120B11F601F70180300A128A15E9
:1004480061240A128A113A30F4008030F5000A1249
:100458008A151524080077087604031D562B831681
:100468000313370836040319062BFF30F80703185F
:10047800F90AFF30F907F91B6C2A80300A128A152D
:1004880061240A128A117A3083120313BB003B08D5
:10049800AC007908AE01AE077808AD01AD073C3075
:1004A8000A128A11B3240A128A1180300A128A1594
:1004B80061240A128A113C30F4000030F5000A1257
:1004C8008A1515240A128A110A128A15F8230800B7
:1004D80083160313390838040319BB2AB801B90174
:1004E8000130BA000030BB000A30F8000030F900D3
:1004F8008312031362086104031D9C2A9C300A12AC
:100508008A1561240A128A116530F4008030F500DA
:100518000A128A1515240A128A110230831203134B
:10052800A3000030A4000A128A15B7240A128A11FF
:100538008312031360085F0403190800C8300A1205
:100548008A1561240A128A111330F4008030F500EC
:100558000A128A1515240A128A110130831203130C
:10056800A3000030A4000A128A15382408000130BC
:1005780083160313B8000030B900BA01BB010A3072
:10058800F8000030F9008312031360085F04031DAC
:10059800E72AC8300A128A1561240A128A116530BE
:1005A800F4008030F5000A128A1515240A128A11FF
:1005B800013083120313A3000030A4000A128A1525
:1005C800B7240A128A1183120313620861040319FB
:1005D80008009C300A128A1561240A128A11133005
:1005E800F4008030F5000A128A1515240A128A11BF
:1005F800023083120313A3000030A4000A128A15E4
:100608003824080083160313B801B901BA01BB01E5
:1006180080300A128A1561240A128A113530F400D2
:100628008030F5000A128A1515240A128A11C8307A
:100638000A128A1561240A128A116530F400803082
:10064800F5000A128A1515240A128A119C300A121A
:100658008A1561240A128A116530F4008030F50089
:100668000A128A1515240A128A11831203136008C4
:100678005F04031D482B0130A3000030A4000A12B8
:100688008A15B7240A128A118312031362086104B7
:10069800031D08000230A3000030A4000A128A15C6
:1006A800B724080083160313B801B901BA01BB01C6
:1006B80080300A128A1561240A128A115730F40010
:1006C8008030F5000A128A1515240A128A1183123D
:1006D800031360085F0403198B2BC8300A128A15AC
:1006E80061240A128A111330F4008030F5000A12CE
:1006F8008A1515240A128A11013083120313A300E4
:100708000030A4000A128A1538240A128A118312AA
:10071800031362086104031908009C300A128A1541
:1007280061240A128A111330F4008030F5000A128D
:100738008A1515240A128A11023083120313A300A2
:100748000030A4000A128A15382408008312031303
:100758003E08C4003F08C5004008C6000310450D08
:10076800460DC7004708CA004108C4004208C50032
:100778004308C6000310450D460DC7004708C900C9
:100788004A080319D32B49084A020318DA2B4A03EB
:10079800FF3A4907C40019304402031CDA2B410808
:1007A800BE004208BF004308C000080049080319FA
:1007B80008004A0849020318E92B4903FF3A4A0787
:1007C800C40019304402031808000630C400440865
:1007D800C800C01BC817C31B4817BF17FF30BE058A
:1007E800FF30BF050030C005C217FF30C105FF301C
:1007F800C2050030C30549084A020318292C0130F4
:100808000310C10DC20DC30DFF3E031D042C0130A2
:10081800C90249084A060319242C0130C8024808AD
:1008280007390319242C032C01300310C00CBF0C0A
:10083800BE0CFF3E031D192C0130C4004408CA0732
:100848004A0849060319522C182C4A084902031869
:10085800522C01300310BE0DBF0DC00DFF3E031D0D
:100868002E2C0130CA0249084A0603194E2C0130C1
:10087800C8024808073903194E2C2D2C01300310E3
:10088800C30CC20CC10CFF3E031D432C0130C40035
:100898004408C9074A084906031D422CC81F642C8E
:1008A800FF30BE06FF30BF06FF30C0060130BE076E
:1008B800003003180130BF07003003180130C007AB
:1008C800481F762CFF30C106FF30C206FF30C30632
:1008D8000130C107003003180130C2070030031887
:1008E8000130C307C8013E08C1073F0803110318B8
:1008F8003F0A031DC207400803110318400A031DDD
:10090800C307C31F992CFF30C106FF30C206FF3052
:10091800C3060130C107003003180130C207003098
:1009280003180130C307C801C80A4108A0004208DB
:10093800A1004308A2004A08C4004408A3004808CC
:10094800C5004508A4000A128A1508278312031354
:100958002008BE002108BF002208C000080083123A
:100968000313B9002D30AF002F08B200C62C3A0887
:10097800AF00390884002F08831380000130AF00CE
:100988002F08B9070130AC07FF302C0784000A1282
:100998008A1123270A128A11AF002F08BA00BA0851
:1009A8000319892D3A08253A031DBB2CB3010130E0
:1009B800AC07FF302C0784000A128A1123270A1279
:1009C8008A11BA00003A0319892D643A0319F02CE8
:1009D8000D3A0319F02CBB2C32088400831300084D
:1009E800B500840A0008B6000230AF002F08B2072D
:1009F800B61F072D0330AF002F08B304B509B60999
:100A0800B50A0319B60ABA01BA0A3A08053A031927
:100A18002E2D3A08AF002F07013E84000A128A11D2
:100A280023270A128A11B0000A128A1123270A12F0
:100A38008A11B10031083602031D242D3008350211
:100A4800031C2E2D0130AF002F08BA073A08053ACB
:100A5800031D0D2D3308033903193D2D2D30AF002B
:100A6800390884002F08831380000130AF002F0855
:100A7800B9073A08AF002F08B400FF30AF002F08BD
:100A8800B4073408FF3A0319C62C0A30A70000300F
:100A9800A8003408AF002F07013E84000A128A110B
:100AA80023270A128A11A0000A128A1123270A1280
:100AB8008A11A1003608A301A3073508A201A207DD
:100AC8000A128A151A250A128A1183120313210899
:100AD800AA01AA072008A901A9070A128A15E4246D
:100AE8000A128A11831203132708303EB000300817
:100AF800BA003A08AF00390884002F088313800031
:100B08000130AF002F08B907412D3908840083133D
:100B180080010800831203132B08B1002C08B200CF
:100B28002D08B3000310320D330DB4003408B5009E
:100B3800B508031DA62D0030AB000030AC00003016
:100B4800AD0008002E08B1002F08B2003008B3002D
:100B58000310320D330DB4003408BA00BA08031D6F
:100B6800BC2D0030AB000030AC000030AD000800F8
:100B78003A087B3EB1003108B5072B08B1002C08B4
:100B8800B2002D08B30010300310B30CB20CB10C36
:100B9800FF3E031DC82D3108B4003408BA002E08E2
:100BA800B1002F08B2003008B30010300310B30CA6
:100BB800B20CB10CFF3E031DDA2D3108B400340825
:100BC800BA068030B1003108BA05AC17AF17FF304C
:100BD800AE05FF30AF050030B0050030B60000307C
:100BE800B7000030B8000730B1003108B9002B1C3D
:100BF8000B2E2E08B6072F08031103182F0A031D02
:100C0800B707300803110318300A031DB80701306D
:100C18000310AD0CAC0CAB0CFF3E031D0C2E0130C9
:100C28000310AE0DAF0DB00DFF3E031D142E0130A5
:100C3800B902031DFB2D0930B1003108B9002B1C86
:100C4800332E2E08B6072F08031103182F0A031D89
:100C5800B707300803110318300A031DB80701301D
:100C68000310AD0CAC0CAB0CFF3E031D342E013051
:100C78000310B80CB70CB60CFF3E031D3C2E013018
:100C8800B902031D232E3608A0003708A100380832
:100C9800A2003508B1003108A3003A08B2003208B2
:100CA800A4000A128A150827831203132008AB0030
:100CB8002108AC002208AD000800831203132B089A
:100CC800AE002C08AF002D08B00003102F0D300D1A
:100CD800B1003108B600B608031D792E0030A8000F
:100CE8000030A9000030AA0008002808AE00290832
:100CF800AF002A08B00003102F0D300DB1003108E5
:100D0800B700B708031D8F2E0030A8000030A900D7
:100D18000030AA0008000030B3000030B4000030F2
:100D2800B50089303707AE002E08B6022B08AE0092
:100D38002C08AF002D08B00010300310B00CAF0C19
:100D4800AE0CFF3E031DA12E2E08B1003108B700DE
:100D58002808AE002908AF002A08B0001030031098
:100D6800B00CAF0CAE0CFF3E031DB32E2E08B10025
:100D78003108B7068030AE002E08B705AC17FF3033
:100D8800AB05FF30AC050030AD05A917FF30A8054D
:100D9800FF30A9050030AA051830AE002E08B200B1
:100DA80001300310B30DB40DB50DFF3E031DD52E54
:100DB8002A082D02031DE62E29082C02031DE62E03
:100DC80028082B02031CF32E2808AB022908031C51
:100DD800290FAC022A08031C2A0AAD023314013079
:100DE8000310AB0DAC0DAD0DFF3E031DF42E01300D
:100DF800B202031DD42E3308A0003408A100350820
:100E0800A2003608AE002E08A3003708AF002F084E
:100E1800A4000A128A150827831203132008A800C1
:100E28002108A9002208AA000800FF1B232F83130A
:100E38007F1883170008840A0319FF0A080007307F
:100E48008A000408840A82070034013400340A3412
:100E5800003464340034E83403341034273456340E
:100E680041344C3456344534203431343A34203407
:100E780020344F344E342034203420345B344F3403
:100E8800463446345D340034563441344C34563498
:100E98004534203432343A34203420344F344E34FC
:100EA8002034203420345B344F34463446345D34A7
:100EB80000342034203420342034203420342034AA
:100EC800203420342034203420342034203420347A
:100ED80020342034203400345334543441345234D0
:100EE800543449344E3447342034553450342E3435
:100EF8002E342E340034543441344E344B342034A0
:100F080049345334203445344D34503454345934EE
:100F1800003420345B344F344E345D342034203474
:100F280020344F3446344634203400345734413466
:100F38005434453452343A34203400345B34253444
:100F480064345D34733400342534643425342534F2
:100F5800003480300A128A1561240A128A11483036
:100F6800F4008030F5000A128A1515240A128A1135
:100F7800C0300A128A1561240A128A110B30F40053
:100F88008030F5000A128A1515240A128A11943045
:100F98000A128A1561240A128A112030F40080305E
:100FA800F5000A128A1515240A128A11D4300A1279
:100FB8008A1561240A128A117230F4008030F50013
:100FC8000A128A1515240A128A1101308312031392
:100FD800A3000030A4000A128A1538240A128A11C4
:100FE800023083120313A3000030A4000A128A15EA
:040FF8003824080091
:1017340064008001840A04060319003404069B2B08
:10174400831203133D083C043B0403190800803052
:10175400BD0608008B130B1DB62B0B11013083162D
:101764000313B4000030B5008B1773088312FF0015
:1017740072088A0071088400700E8300FE0E7E0ECB
:101784000900831203132808A0002908A100A2015C
:101794008E30F4007408A300A4010A128A150827E5
:1017A400831203132008A8002108A9002208AA0014
:1017B400080038300A128A1561240A128A150C307E
:1017C4000A128A1561240A128A1501300A128A152E
:1017D40061240A128A1506300A128A1561240A1233
:1017E4008A1580300A128A1561240800F401F50173
:1017F4007508803AFF0080307F02031D032C4930B6
:1018040074020318080001308316031334063504E8
:10181400031DFA2BB401B5010130F4070318F50ACE
:101824000030F507FA2B750883120313FF007408C0
:1018340084000A128A1119270A128A15003803191A
:101844000800750883120313FF00740884000A1249
:101854008A1119270A128A150A128A158C240A1267
:101864008A150130F4070318F50A152C512C0130A0
:10187400F4000030F5000A128A15A9268312031316
:10188400DF01E00108000230F4000030F5000A1224
:101894008A15A92683120313E101E20108008312C9
:1018A40003132408003A0319582C602C2308013A26
:1018B4000319392C033A0319452C602C08008312B0
:1018C4000313A0000710200888000715A101A20136
:1018D4002208803AFF0083307F02031D732CE83016
:1018E40021020318882C013083120313A107031863
:1018F400A20A0030A2072208803AFF0083307F0248
:10190400031D862CE8302102031C752C831203135B
:101914000711080083120313A0000714200888008D
:101924000715A101A2012208803AFF0083307F023B
:10193400031D9E2CE83021020318B32C01308312BE
:101944000313A1070318A20A0030A2072208803A51
:10195400FF0083307F02031DB12CE8302102031CF9
:10196400A02C8312031307110800D42C0130F400B7
:101974000030F5000A128A15EF2501308312031393
:10198400DF000030E00008000230F4000030F50011
:101994000A128A15EF25013083120313E100003087
:1019A400E2000800831203132408003A0319DB2C15
:1019B400E32C2308013A0319B82C033A0319C62C63
:1019C400E32C080083120313280827040319132D9A
:1019D400AB01AB0AA81BFA2C01300310A70DA80D0C
:1019E400FF3E031DEF2C0130F5007508AB07EC2C0E
:1019F40028082A02031D002D27082902031C082D8C
:101A04002708A9022808031CAA03AA02013003100C
:101A1400A80CA70CFF3E031D092D0130AB02031DCA
:101A2400FA2C2A08A801A8072908A701A707080073
:101A340083120313A501A601210820040319532DC1
:101A4400A401A40AA11B322D01300310A00DA10D85
:101A5400FF3E031D272D0130F4007408A407242D34
:101A640001300310A50DA60DFF3E031D332D2108E3
:101A74002302031D3F2D20082202031C482D2008A9
:101A8400A2022108031CA303A3022514013003109E
:101A9400A10CA00CFF3E031D492D0130A402031D1F
:101AA400322D2608A101A1072508A001A0070800DE
:101AB40083160313861006150711871007100712E3
:101AC4008711880183120313880187010A128A157A
:101AD400DB230A128A150A128A11AD270A128A1503
:101AE400FF308316031385008B170B178312031320
:101AF40090010C10831603130C148312031310109B
:101B0400443083160313810080300A128A1561243D
:101B14000A128A153D30F4008030F5000A128A1545
:101B240015240A128A150A128A112C200A128A15FF
:101B34000A128A112F220A128A15952D8312031371
:101B4400A501A31FAC2DA209A309A20A0319A30A84
:101B5400A501A50AA11FB32DA009A109A00A031973
:101B6400A10A210820040319E02DA401A40AA11B41
:101B7400C72D01300310A00DA10DFF3E031DBC2D88
:101B84000130F4007408A407B92D21082302031DB1
:101B9400CD2D20082202031CD52D2008A2022108E5
:101BA400031CA303A30201300310A10CA00CFF3EED
:101BB400031DD62D0130A402031DC72D25080319CA
:101BC400E82DA209A309A20A0319A30A2308A10163
:101BD400A1072208A001A00708003C2E83120313CA
:101BE4008715F930A0000000A00BF52DF92D000099
:101BF4008312031387111A30A100F830A000A00B40
:101C0400012EA10B012E0000063083120313A20043
:101C14001330A100B130A000A00B0E2EA10B0E2E8C
:101C2400A20B0E2E152E0800831203130716F9308B
:101C3400A0000000A00B1B2E1F2E00008312031314
:101C440007121A30A100F830A000A00B272EA10B18
:101C5400272E0000063083120313A2001330A100C4
:101C6400B130A000A00B342EA10B342EA20B342EC5
:101C74003B2E08007508003A0319412E492E7408BA
:101C8400013A0319F02D033A0319162E492E0800C0
:101C940083120313A21F732E0030A6000030A70086
:101CA4008030A8002009A9002109AA002209AB005C
:101CB400A90A0319AA0A0319AB0A2908A6072A08BC
:101CC40003182A0F662E672EA7072B0803182B0F5D
:101CD4006C2E6D2EA8072608A0002708A10028084E
:101CE400A200A51F9A2E0030A6000030A700803065
:101CF400A8002309A9002409AA002509AB00A90A00
:101D04000319AA0A0319AB0A2908A6072A08031803
:101D14002A0F8D2E8E2EA7072B0803182B0F932E18
:101D2400942EA8072608A3002708A4002808A500C5
:101D34008030A2068030A50625082202031D080073
:101D440024082102031D0800230820020800FA2E9B
:101D54008312031387150330A1009730A000A00B52
:101D6400B12EA10BB12EB62E8312031387111A3094
:101D7400A100F830A000A00BBD2EA10BBD2E0000C9
:101D8400063083120313A2001330A100B130A00067
:101D9400A00BCA2EA10BCA2EA20BCA2ED12E08004C
:101DA4008312031307160330A1009730A000A00B81
:101DB400D92EA10BD92EDE2E8312031307121A304B
:101DC400A100F830A000A00BE52EA10BE52E000029
:101DD400063083120313A2001330A100B130A00017
:101DE400A00BF22EA10BF22EA20BF22EF92E08005C
:101DF4007508003A0319FF2E072F7408013A0319D6
:101E0400AA2E033A0319D22E072F080083120313B4
:101E140023080319122F220821042004031D252F4F
:101E24000030A0000030A1000030A2000800013002
:101E3400A5002508A30701300310A20CA10CA00CD7
:101E4400FF3E031D1E2FFE3022050319402F192FBC
:101E54000130A5002508A3070130A00700300318AE
:101E64000130A107003003180130A207013003102C
:101E7400A20CA10CA00CFF3E031D392FFF3022053C
:101E840003194F2F2A2F0130A30201300310A00D94
:101E9400A10DA20DFF3E031D482FA11F452F23189E
:101EA400592FFF30A0057F30A105FF30A205031094
:101EB400A30C2308A500A601A70110300310A50D4B
:101EC400A60DA70DFF3E031D602F2508A0042608BC
:101ED400A1042708A204240803190800A217080073
:101EE400831203134B08CF004C08D0004D08D100D7
:101EF4000310500D510DD2005208D800D808031D0C
:101F04008C2F0030CE000030CD000030CC000030EB
:101F1400CB0008004B08CF004C08D0004D08D1007E
:101F240017300310D10CD00CCF0CFF3E031D932FA0
:101F34004F08D2005208D300CC17FF30CB05FF3036
:101F4400CC050030CD054B08D4004C08D5004D0815
:101F5400D600D7018E30D802D81FCE2F5808803A29
:101F64008F3E0318BE2F0030CE000030CD0000306D
:101F7400CC000030CB00080001300310D70CD60C85
:101F8400D50CD40CFF3E031DBF2F0130CF004F08EA
:101F9400D8070319E92FBE2F18305802031CE62F67
:101FA4000030CE000030CD000030CC000030CB003B
:101FB40008000130CF000310D40DD50DD60DD70D78
:101FC400CF0BDD2F0130D802D808031DDB2F5308B7
:101FD4000319F72FD409D509D609D709D40A031947
:101FE400D50A0319D60A0319D70A5708CE0056088A
:0C1FF400CD005508CC005408CB000800BC
:02400E0071FF40
:00000001FF
